:020000040800F2
:1000000028070020CD010008B7060008A504000855
:10001000B30600089D0200086B15000800000000F0
:10002000000000000000000000000000590F000860
:10003000A10200080000000007090008991000084C
:10004000E7010008E7010008E7010008E7010008F0
:10005000E7010008E7010008E7010008E7010008E0
:10006000E7010008E7010008E7010008E7010008D0
:10007000E7010008E7010008E7010008E7010008C0
:10008000E7010008E7010008E7010008E7010008B0
:10009000E7010008E7010008E7010008E7010008A0
:1000A000E7010008E7010008E7010008E701000890
:1000B000E7010008E7010008E7010008E701000880
:1000C000E7010008E7010008E7010008E701000870
:1000D000E70100088D1100080912000885120008C8
:1000E000E7010008E7010008E7010008E701000850
:1000F000E7010008E7010008E7010008E701000840
:10010000E7010008E7010008E7010008E70100082F
:10011000E7010008E7010008E7010008E70100081F
:10012000E7010008E7010008E7010008E70100080F
:1001300000F002F800F03AF80AA090E8000C8244BF
:100140008344AAF10107DA4501D100F02FF8AFF29C
:10015000090EBAE80F0013F0010F18BFFB1A43F0A5
:1001600001031847EC1400000C150000103A24BFDE
:1001700078C878C1FAD8520724BF30C830C144BF0C
:1001800004680C607047000000230024002500264E
:10019000103A28BF78C1FBD8520728BF30C148BFEA
:1001A0000B6070471FB51FBD10B510BD00F036F8CD
:1001B0001146FFF7F7FF01F0DBF900F054F803B444
:1001C000FFF7F2FF03BC00F057F800000948804732
:1001D00009480047FEE7FEE7FEE7FEE7FEE7FEE729
:1001E000FEE7FEE7FEE7FEE704480549054A064B41
:1001F000704700002D11000831010008280100207F
:10020000280700202803002028030020704770479B
:100210007047000000487047C80000207546FFF78F
:10022000F9FFAE4605006946534620F007008546B3
:1002300018B020B5FFF7D8FFBDE820404FF000060A
:100240004FF000074FF000084FF0000B21F00701BE
:10025000AC46ACE8C009ACE8C009ACE8C009ACE801
:10026000C0098D46704710B50446AFF300802046A4
:10027000BDE81040FFF7A3BF01491820ABBEFEE761
:10028000260002007047014600BF080900EB80000D
:10029000420001F00F001044C0B2704700BFFEE7FB
:1002A000704700000549096821F01001034A1160F8
:1002B00011460968014311607047000000200240A8
:1002C00001460020034A106800F03800084310601F
:1002D00070470000002002402DE9F0410246002551
:1002E0000026002000230024002791F803C00CF012
:1002F0000F0591F803C00CF0100CBCF1000F03D0F7
:1003000091F802C04CEA050591F800C0BCF1000F5D
:1003100031D0146800202BE04FF0010C0CFA00F3F0
:10032000B1F800C00CEA03069E4220D183004FF0D2
:100330000F0C0CFA03F7BC4305FA03FC4CEA040467
:1003400091F803C0BCF1280F06D14FF0010C0CFA54
:1003500000FCC2F814C00AE091F803C0BCF1480FD9
:1003600005D14FF0010C0CFA00FCC2F810C0401C83
:100370000828D1D31460B1F800C0BCF1FF0F34DD00
:10038000546800202EE000F1080C4FF0010808FA34
:100390000CF3B1F800C00CEA03069E4221D18300A1
:1003A0004FF00F0C0CFA03F7BC4305FA03FC4CEAC0
:1003B000040491F803C0BCF1280F05D100F1080C2A
:1003C00008FA0CF8C2F8148091F803C0BCF1480F89
:1003D00007D100F1080C4FF0010808FA0CF8C2F838
:1003E0001080401C0828CED35460BDE8F081000086
:1003F000F0B50A46002300240021002500F0004645
:10040000B6F1004F02D11D4EF16901E01B4E71683B
:10041000C0F3034583B200F44016B6F5401F08D17F
:1004200021F07061154E766826F07066134F7E607D
:1004300012E000F48016B6F5801F06D1032606FAF6
:1004400005F4A14341F0706106E0460D360103FA60
:1004500006F6B14341F0706122B1460D360103FA50
:1004600006F6314300F00046B6F1004F02D1034ECC
:10047000F16101E0014E7160F0BD0000000001403B
:100480000246002093680B400BB1012000E00020E1
:10049000704741617047016170470AB1016100E036
:1004A0004161704700BFFEE770B504460D46164631
:1004B000606928436061606930436061022000F038
:1004C00009FA206928432061022000F003FA6069DC
:1004D0002843606170BDF8B506460C4615460121FB
:1004E000082000F031FA14208DF8030044EA0500DA
:1004F000ADF8000002208DF8020069463046FFF793
:10050000EBFE45EA04013046FFF7C5FFF8BD70B5C4
:1005100004460D46164660692843606120693043F1
:100520002061022000F0D6F92069284320610220D2
:1005300000F0D0F960692843606170BD2DE9F04793
:1005400080460C4615461E46002720693043206130
:10055000B94618E0606928436061022000F0BAF9EA
:100560002069284320617806070E31462046FFF7B0
:1005700087FF08B1781CC7B2012000F0ABF909F180
:10058000010000F0FF09B9F1080FE3DBB8F1000F3B
:1005900005D1324629462046FFF7B9FF04E032462E
:1005A00029462046FFF780FF3846BDE8F0872DE951
:1005B000F04106460C4615461F46606928436061B7
:1005C0004FF0000819E0F20939462046FFF765FFB1
:1005D0007006060E022000F07DF920692843206194
:1005E000022000F077F9606928436061022000F082
:1005F00071F908F1010000F0FF08B8F1080FE2DB23
:10060000BDE8F08170B504460D46164620693043BA
:100610002061206928432061042000F05BF96069B3
:1006200030436061042000F055F96069284360613F
:1006300070BD70B504460D4616466069284360617A
:10064000606930436061042000F044F92069284368
:100650002061042000F03EF920693043206104202D
:1006600000F038F970BDF0B504460D461646002777
:10067000206930432061012000F02CF920692843D3
:100680002061012000F026F90AE0781CC7B2FA2F99
:1006900006DD324629462046FFF7CBFF0120F0BD9C
:1006A000A06830400028F0D16069284360610020D4
:1006B000F5E700BFFEE7704770B5002100230F2269
:1006C000C47804B3154C246804F4E064C4F5E06411
:1006D000210AC1F10403CA40447804FA03F1847882
:1006E0001440214309010E4C0678A155047804F00A
:1006F0001F050124AC4005786D11AD0005F1E02522
:10070000C5F8004109E0047804F01F050124AC405D
:10071000044D0678761145F8264070BD0CED00E0DA
:1007200000E400E080E100E010B5802240210B48A9
:10073000FFF7D1FEC82000F0CDF8C82000F0CAF8BD
:100740000021084600F094F80021012000F090F804
:1007500081210D2000F08CF810BD0000000C01403C
:1007600010B50446802240214048FFF74BFF80230C
:1007700040223E49A220FFF71AFF802240213B4839
:10078000FFF771FF8023402238490220FFF70FFF57
:10079000802240213548FFF766FF80224021334800
:1007A000FFF730FF802340223049A320FFF7FFFEF0
:1007B000802240212D48FFF756FF802340222B49FD
:1007C0000120FFF7BBFE00F07F0020708023402255
:1007D00026490120FFF7B2FE00F07F006070802301
:1007E000402222490120FFF7A9FE00F03F00A0703F
:1007F000802340221D490120FFF7A0FE00F03F00AA
:1008000020718023402219490120FFF797FEE070F4
:100810008023402215490120FFF790FE00F01F00C1
:1008200060718023402211490020FFF787FEA071EC
:10083000802240210D48FFF7FCFE2078FFF723FDC2
:1008400020706078FFF71FFD6070A078FFF71BFD38
:10085000A0702079FFF717FD20716079FFF713FD75
:100860006071A079FFF70FFDA07110BD000C014071
:1008700070B505460C46802240211548FFF7C2FEA0
:10088000802340221249A220FFF791FE80224021BE
:100890000F48FFF7E8FE802340220D492846FFF766
:1008A00086FE802240210A48FFF7DDFE8023402299
:1008B00007492046FFF77BFE802240210448FFF7CE
:1008C000D2FE802240210248FFF7B3FE70BD000037
:1008D000000C01400CB500210191009101910EE046
:1008E0000021009104E09DF80010491CC9B200915C
:1008F0009DF800100529F6DB0199491C0191019929
:100900008142EDD30CBD704729B1064AD26902433A
:10091000044BDA6104E0034AD2698243014BDA6195
:10092000704700000010024029B1064A12690243D4
:10093000044B1A6104E0034A12698243014B1A61B5
:10094000704700000010024029B1064A9269024334
:10095000044B9A6104E0034A92698243014B9A6115
:10096000704700000010024029B1064AD2680243D5
:10097000044BDA6004E0034AD2688243014BDA6038
:10098000704700000010024010B500F031F84FF43D
:10099000803000F0EFF800F04BF9012826D100205C
:1009A00000F0DCF8002000F017F94FF4806000F050
:1009B00007F90220FFF784FC1020FFF773FC4FF4C7
:1009C000E0114FF4803000F019F9012000F010F927
:1009D00000BF392000F09CF80028FAD0022000F077
:1009E0001BF900BF00F0B2F80828FBD110BD0000D1
:1009F0000F48006840F001000D4908600846406853
:100A00000C4908400A494860084600680A490840FD
:100A1000074908600846006820F4802008600846FE
:100A2000406820F4FE0048604FF41F008860704763
:100A3000001002400000FFF8FFFFF6FE30B5002175
:100A40000022002400232D4D6D6805F00C0121B11A
:100A5000042905D0082923D105E0294D056022E0AD
:100A6000274D05601FE0254D6D6805F47012234D7C
:100A70006D6805F48034022505EB92421CB9214DC6
:100A8000554305600BE01D4D6D6805F400351DB143
:100A90001C4D5543056002E0194D5543056002E0C9
:100AA000174D056000BF00BF144D6D6805F0F001E3
:100AB0000909154D6B5C0568DD4045600F4D6D689B
:100AC00005F4E061090A104D6B5C4568DD40856006
:100AD0000A4D6D6805F46051C90A0B4D6B5C4568A1
:100AE000DD40C560054D6D6805F44041890B074D3B
:100AF0006B5CC568B5FBF3F5056130BD00100240C5
:100B000000127A0000093D00190000202900002091
:100B100010B501460022002300204A11012A02D10B
:100B2000094C236806E0022A02D1074C236A01E03F
:100B3000054C636A01F01F02012494401C400CB173
:100B4000012000E0002010BD001002400248406873
:100B500000F00C0070470000001002400146002029
:100B6000034A506820F0F0000843506070470000CE
:100B7000001002401149096821F480310F4A1160C8
:100B80001146096821F480211160B0F5803F03D03F
:100B9000B0F5802F0ED106E00849096841F4803194
:100BA000064A116007E00549096841F4A021034A9B
:100BB000116000E000BF00BF70470000001002405D
:100BC00001460020034A506820F4E060084350606A
:100BD000704700000010024001460020034A5068A0
:100BE00020F4605040EAC10050607047001002409D
:100BF000014908667047000000004242024600209A
:100C0000044B586820F47C1042EA01031843014B5E
:100C1000586070470010024001460020034A5068A7
:100C200020F00300084350607047000000100240AD
:100C300038B5002000900024002500BF3120FFF7C8
:100C400067FF05460098401C00900098B0F5A06F23
:100C500001D0002DF2D03120FFF75AFF08B1012456
:100C600000E00024204638BD38B504460D464FF458
:100C700000511E48FFF70FFC40211D4800F0A4FB67
:100C80000020009004E09DF80000401CC0B20090DD
:100C90009DF800001428F6DB0020009010E0217879
:100CA000134800F05EFC641C00BF4021104800F0B7
:100CB0008BFB0128F9D19DF80000401CC0B20090C8
:100CC0009DF80000A842EADB0020009004E09DF8B7
:100CD0000000401CC0B200909DF800001428F6DB14
:100CE0004FF400510148FFF7D4FB38BD001001401C
:100CF0000048004000B587B001210846FFF724FEF8
:100D000001218E48FFF774FB01210420FFF71CFE30
:100D100001210820FFF718FE01211020FFF714FE23
:100D200001218803FFF710FE01214804FFF7ECFDC5
:100D300001218804FFF7E8FD4FF40050ADF81800DA
:100D400003208DF81A0010208DF81B0006A97C489E
:100D5000FFF7C2FA4FF400517948FFF79AFB4FF4BE
:100D60000070ADF8180003208DF81A0018208DF8D7
:100D70001B0006A97348FFF7AFFA4FF48060ADF887
:100D8000180004208DF81B0006A96E48FFF7A4FA8E
:100D90000420ADF8180003208DF81A0018208DF8F3
:100DA0001B0006A96748FFF797FA0820ADF818005E
:100DB00004208DF81B0006A96248FFF78DFA4FF456
:100DC0008060ADF8180003208DF81A0018208DF807
:100DD0001B0006A95C48FFF77FFA4FF40060ADF8EE
:100DE000180004208DF81B0006A95748FFF774FA75
:100DF000564800F09BFA4FF4E13002900020ADF825
:100E00000C00ADF80E00ADF81000ADF814000C2089
:100E1000ADF8120002A94D4800F032FB012240F269
:100E200025514A4800F007FB0121484800F071FABB
:100E30004021464800F064FA4021444800F0C4FADA
:100E4000434800F073FA4FF4E13002900020ADF80F
:100E50000C00ADF80E00ADF81000ADF814000C2039
:100E6000ADF8120002A93A4800F00AFB012240F254
:100E70002551374800F0DFFA0121354800F049FAE2
:100E80004021334800F03CFA4021314800F09CFA00
:100E9000304800F04BFA4FF4E13002900020ADF8FA
:100EA0000C00ADF80E00ADF81000ADF814000C20E9
:100EB000ADF8120002A9274800F0E2FA012240F240
:100EC0002551244800F0B7FA0121224800F021FA08
:100ED0004021204800F014FA40211E4800F074FA26
:100EE00025208DF8040000208DF805008DF80600FF
:100EF00001208DF8070001A8FFF7DEFB26208DF802
:100F0000040000208DF8050001208DF806008DF802
:100F1000070001A8FFF7D0FB27208DF80400002070
:100F20008DF8050002208DF8060001208DF80700DD
:100F300001A8FFF7C1FB07B000BD000000023000B0
:100F40000010014000080140000C01400038014041
:100F50000044004000480040704710B500F002F81F
:100F600010BD00000CB500200190009033480068CF
:100F700040F480303149086000BF3048006800F418
:100F8000003000900198401C0190009818B9019819
:100F9000B0F5A06FF1D12948006800F4003010B11D
:100FA0000120009001E0002000900098012843D12A
:100FB0002348006840F01000214908600846006896
:100FC00020F0030008600846006840F00200086056
:100FD0001A48406819494860084640684860084611
:100FE000406840F4806048600846406820F47C1007
:100FF00048600846406840F4E810486008460068C9
:1010000040F08070086000BF0C48006800F000707D
:101010000028F9D00948406820F0030007494860DB
:101020000846406840F00200486000BF034840683E
:1010300000F00C000828F9D10CBD0000001002409F
:1010400000200240042808D14FF0E021096941F056
:1010500004014FF0E022116107E04FF0E02109693F
:1010600021F004014FF0E0221161704710B56FF0DC
:101070000400FFF7E7FF4FF0E020006940F00200B6
:101080004FF0E021086142F22730486108460069CC
:1010900040F00100086110BD1D4800780A280BDAF5
:1010A0001B480078401C1A490870084600780A2836
:1010B00002DB012017490870174800780A280BDA6C
:1010C00015480078401C14490870084600780A2822
:1010D00002DB012011490870114800780A280BDA58
:1010E0000F480078401C0E490870084600780A280E
:1010F00002DB01200B4908700B480088B0F57A7FAD
:1011000004DA09480088401C07490880704700003D
:101110000000002001000020030000200400002047
:1011200006000020070000200A00002010B5134828
:10113000006840F001001149086008464068104905
:1011400008400E494860084600680E4908400B49AF
:1011500008600846006820F480200860084640685F
:1011600020F4FE0048604FF41F008860FFF7F5FE92
:101170004FF000600449086010BD000000100240FC
:101180000000FFF8FFFFF6FE08ED00E010B50024B8
:1011900040F22551164800F024F918B3144800F025
:1011A000DBF9C4B2134800780A2802DB0020124998
:1011B000087012480078A8B90F4801780078401CE0
:1011C0000D4A10700E48445410460078322802DD53
:1011D000322011460870084800780A49087000203B
:1011E000044908704021024800F08AF810BD000050
:1011F00000380140060000201600002007000020F3
:10120000940000200800002010B5002440F2255171
:10121000164800F0E6F818B3144800F09DF9C4B27F
:10122000134800780A2802DB00201249087012488F
:101230000078A8B90F4801780078401C0D4A10705A
:101240000E48445410460078322802DD3220114600
:101250000870084800780A4908700020044908709E
:101260004021024800F04CF810BD0000004400404E
:10127000030000201700002004000020620000206E
:101280000500002010B5002440F22551164800F05A
:10129000A8F818B3144800F05FF9C4B213480078F6
:1012A0000A2802DB00201249087012480078A8B909
:1012B0000F4801780078401C0D4A10700E484454C5
:1012C00010460078322802DD3220114608700848A6
:1012D00000780A490870002004490870402102483B
:1012E00000F00EF810BD0000004800400000002093
:1012F0001800002001000020300000200200002023
:1013000001F40072B2F5007F00D100BFCA43028031
:10131000704721B1828942F40052828104E08289BF
:101320004DF6FF731A4082817047000010B50446E5
:101330002048844209D101218803FFF715FB0021D1
:101340004FF48040FFF710FB32E01B48844209D184
:1013500001214804FFF7E8FA00214FF40030FFF7BD
:10136000E3FA25E01548844209D101218804FFF7FA
:10137000DBFA00214FF48020FFF7D6FA18E010487E
:10138000844209D10121C804FFF7CEFA00214FF4AD
:101390000020FFF7C9FA0BE00A48844208D1012176
:1013A0000805FFF7C1FA00214FF48010FFF7BCFADF
:1013B00010BD0000003801400044004000480040DB
:1013C000004C00400050004002460020B1F5007F74
:1013D00000D100BF13880B400BB1012000E00020BA
:1013E000704770B50246002400230025002040F617
:1013F0006A16B14200D100BFC1F3421501F01F03CC
:10140000012606FA03F3012D02D19689334006E046
:10141000022D02D1168A334001E0968A33400C1225
:10142000012606FA04F41688344013B10CB10120E9
:1014300000E0002070BDF0B5034600240026002522
:10144000002040F66A17B94200D100BF1846C1F328
:10145000421401F01F06012707FA06F5012C01D1FD
:101460000C3004E0022C01D1103000E014301AB12D
:1014700007682F43076002E00768AF430760F0BDCD
:101480002DE9F04786B005460E460024A24600BF6F
:10149000A1460027B08900B100BF2F462C8A4CF628
:1014A000FF700440F08804432C82AC894EF6F310A0
:1014B0000440B08831890843718908430443AC81F2
:1014C000AC8A4FF6FF400440B0890443AC8201A8C7
:1014D000FFF7B4FA1F48874202D1DDF810A001E0FF
:1014E000DDF80CA0A88900F4004040B10AEBCA0066
:1014F00000EB0A1031684900B0FBF1F807E00AEB95
:10150000CA0000EB0A1031688900B0FBF1F86420D2
:10151000B8FBF0F004012009642101FB1089A889BF
:1015200000F4004040B1322000EBC900B0FBF1F004
:1015300000F00700044308E0322000EB09106421AA
:10154000B0FBF1F000F00F0004432C8106B0BDE8C1
:10155000F08700000038014001468888C0F3080089
:101560007047C1F308028280704700BFFEE70000A9
:10157000FFF70AFAFFF77AFDFFF7BCFB01203049BD
:101580000870022048700320887003212C48FFF760
:101590006BFBFFF7C9F852E02A480088B0F57A7F64
:1015A0004DDB0020274908802748FFF7D9F8264857
:1015B00080780A2190FBF1F03030244908702248ED
:1015C00080780A2190FBF1F201FB120030301F49B4
:1015D00048703A20887003211C48FFF745FB1A48E1
:1015E00040780A2190FBF1F0303018490870164815
:1015F00040780A2190FBF1F201FB120030301349D0
:1016000048703A20887003211048FFF72DFB0E48E0
:1016100000780A2190FBF1F030300C4908700A483C
:1016200000780A2190FBF1F201FB120030300749EB
:1016300048700020887002210448FFF715FBABE7D3
:10164000300000200A0000200C00002013000020C1
:101650007016000800000020300000006C01000837
:10166000A016000830000020F806000088010008DD
:101670000A00000A00000A0000000000000000004C
:101680000000000000000000000000000001020354
:10169000040102030406070809020406080000000A
:04000005080001CD21
:00000001FF
